:100000000C9466000C94E1110C9408120C948E0070
:100010000C948E000C948E000C948E000C948E0028
:100020000C948E000C948E000C948E000C94120D87
:100030000C948E000C948E000C948E000C948E0008
:100040000C9430120C948E000C9435140C9467149C
:100050000C948E000C948E000C948E000C948E00E8
:100060000C9441070C948E0000000008000201006F
:100070000003040700000000000000000102040863
:100080001020408001020408102001020408102002
:10009000040404040404040402020202020203032E
:1000A00003030303000000002300260029000000D2
:1000B0000000250028002B0000000000240027007D
:1000C0002A003F025706210A9714C50211241FBEB9
:1000D000CFEFD8E0DEBFCDBF12E0A0E0B1E0E6E5B3
:1000E000FFE202C005900D92A031B107D9F723E0DD
:1000F000A0E1B2E001C01D92AF3FB207E1F710E00E
:10010000CAECD0E004C02297FE010E945E16C23CF9
:10011000D107C9F70E9405150C949E170C94000096
:10012000DC01ED91FD918081ED91FD919081ED914A
:10013000FD916C9163708E2309F064609F2309F038
:100140006860EDEAF0E0E60FF11D659565956D9349
:100150006D917D918D919D91099423C01AC012C01B
:1001600016C010C01EC009C014C013C006C019C0FC
:1001700009C00DC007C00DC014C06250704080405F
:1001800090400BC0615070408040904006C06E5F50
:1001900001C06F5F7F4F8F4F9F4F9E938E937E93D3
:1001A0006E93089580918302909184020C94900044
:1001B00080918102909182020C949000DC01ED917B
:1001C000FC910190F081E02D0994CF93DF93EC0135
:1001D00081E090E0909372028093710261E084E08C
:1001E0000E94D613BE0186E0DF91CF910C941513C7
:1001F000CF93DF93EC018FEF9FEF90937202809388
:10020000710260E084E00E94D613BE0186E0DF91B7
:10021000CF910C9415130F931F93CF93DF93EC01A1
:100220002091780230917902809110019091110112
:10023000A901481B590BC417D507ACF560910A01F9
:1002400070910B01A901461B570B80910E019091F3
:100250000F014C175D072CF5E0910C01F0910D0199
:100260002C1B3D0B8E1B9F0B0E944816269F800166
:10027000279F100D369F100D11240E0F1F1F0451C4
:100280001109B801882777FD8095982F0E94F915EC
:100290006093740270937502809376029093770254
:1002A000C8010E94E5002091780230917902809186
:1002B000100190911101820F931F8C179D07ACF5CF
:1002C00060910A0170910B01A901460F571F80919F
:1002D0000E0190910F01C417D5072CF5E0910C0188
:1002E000F0910D01C21BD30B8E1B9F0B0E94481671
:1002F000C69F8001C79F100DD69F100D11240E0FB1
:100300001F1F04511109B801882777FD8095982F88
:100310000E94F915609374027093750280937602BF
:1003200090937702C8010E94F80081E080937302E5
:10033000DF91CF911F910F91089510927202109248
:10034000710260E084E00E94D61360E070E086E015
:100350000C94151340E060EF80E00E94B7119B0100
:10036000AC0160E070E080E192E00E94521140E058
:1003700060EF80E00E94B7119B01AC0161E070E08A
:1003800080E192E00C94521140E060E080EF0E9426
:10039000B7119B01AC0160E070E080E192E00E9447
:1003A000521140E060E080EF0E94B7119B01AC0168
:1003B00061E070E080E192E00C94521140E060E076
:1003C00080E00E94B7119B01AC0160E070E080E129
:1003D00092E00E94521140E060E080E00E94B7117C
:1003E0009B01AC0161E070E080E192E00C9452115D
:1003F00040EF60E080EF0E94B7119B01AC0160E02C
:1004000070E080E192E00E94521140EF60E080EFE6
:100410000E94B7119B01AC0161E070E080E192E0C5
:100420000C945211E8E1F1E0119281E0E732F80713
:10043000D9F7109214011092150110921601109222
:10044000170110927E0210927D0210927C0210928F
:100450007B020895682F89E892E00E94D30564E04A
:1004600070E089E892E00E94DE0061E070E089E8D7
:1004700092E00E94DE0089E892E00C945406CF934B
:10048000DF9362E082E00E949D1362E083E00E94BD
:100490009D13E2E9F0E0E491F0E0EE0FFF1FEC5570
:1004A000FF4F859194919093660280936502EEE7E9
:1004B000F0E0E491E0936902E3E9F0E0E491F0E038
:1004C000EE0FFF1FEC55FF4F8591949190936802BA
:1004D00080936702EFE7F0E0E491E0936A02109204
:1004E0006C0210926D0210926E0210926F0280EDFB
:1004F00097E00E94D112E0916502F091660290812E
:1005000080916902982381E009F480E0E09167021C
:10051000F0916802908120916A02922309F0826032
:1005200080936B02C5E6D2E0D0938202C093810231
:1005300041E050E068ED70E080E00E94C11181E090
:1005400080937002D0938402C093830241E050E014
:1005500062ED70E00E94C1118091700290E00196FE
:100560008093700229E433E04AE069E085E292E09A
:100570000E94760D22E530E047E062E070E080E125
:1005800092E0DF91CF910C942A1180E192E00C94DB
:100590001B0F61E081E10E949D1361E085E00E94F4
:1005A0009D1385E292E00E94AA0E811104C061E0D1
:1005B00081E10E94D61361E085E292E00E94980DED
:1005C000811104C061E081E10E94D61343E050E054
:1005D00061E070E085E292E00E949F0D811104C00D
:1005E00061E081E10E94D61380E192E00E942F0F2A
:1005F00040EF60E080E00E94B7119B01AC0160E039
:1006000070E080E192E00E94521140EF60E080E0F3
:100610000E94B7119B01AC0161E070E080E192E0C3
:100620000E94521180E192E00E94B30F61E082E0EB
:100630000E94D61361E083E00E94D61361E084E05B
:100640000E949D1361E086E00E949D1364EF71E0BB
:1006500080E090E00E94A91289E892E00E94C9051A
:100660000E941202809127010C942A02CF93DF93FB
:10067000CDB7DEB7A6970FB6F894DEBF0FBECDBFDD
:1006800085E292E00E946C0E882309F442C08CE15E
:100690008EA3AE014A5D5F4FBE016F5F7F4F85E263
:1006A00092E00E943C0D882311F10E949D018981F6
:1006B0009A81909379028093780261E085E00E94AC
:1006C000D61389E0ECE2F1E0DE015D9601900D9237
:1006D0008A95E1F749E0BE01635E7F4F85E292E0D3
:1006E0000E94220E85E292E00E94C70D04C061E0E4
:1006F00081E10E94D61364E170E080E090E00E9406
:10070000A91260E081E10E94D61360E085E00E94BA
:10071000D613A6960FB6F894DEBF0FBECDBFDF91FD
:10072000CF910895CF93DF93CDB7DEB76F970FB614
:10073000F894DEBF0FBECDBF9E8F8D8F42E0BE010D
:10074000635E7F4F85E292E00E94220E85E292E096
:100750000E94C70D8CE18F8FE0912502F091260257
:100760000088F189E02D68EC70E085E292E009955F
:10077000882379F0AE01415E5F4FBE016F5F7F4F0E
:1007800085E292E00E943C0D882319F061E085E04B
:1007900002C061E081E10E94D6136AE070E080E06F
:1007A00090E00E94A91260E085E00E94D61360E00C
:1007B00081E10E94D6136F960FB6F894DEBF0FBE8C
:1007C000CDBFDF91CF910895CF93DF931092800238
:1007D00010927F026091270189E892E00E94D30580
:1007E00060E870E089E892E00E94DE0060E089E85D
:1007F00092E00E94DD054FE050E065E270E089E89C
:1008000092E00E94510689E892E00E943205892B0D
:10081000A9F0C0917F02D091800289E892E00E9405
:100820003A05C85EDE4F888380917F0290918002F6
:1008300001969093800280937F02E5CFDF91CF9164
:100840000895CF92DF92EF92FF920E9436031092AA
:100850007A020E94DE010E94E403809112019091CD
:10086000130140917A02E8E1F1E0219130E0821732
:1008700093070CF441E021E0E732F207B1F740932F
:100880007A0280917002823030F4F89485E692E02A
:100890000E94900001C0F894C0906C02D0906D024C
:1008A000E0906E02F0906F027894809161029091D6
:1008B0006202A0916302B0916402C816D906EA06EA
:1008C000FB0649F18C159D05AE05BF0534F48091FA
:1008D0007A02811102C00E94AA0180916102909166
:1008E0006202A0916302B0916402C816D906EA06BA
:1008F000FB0634F480917A02811102C00E94C40187
:10090000C0926102D0926202E0926302F0926402AD
:10091000C6010E94920380917A0281112CC08091BD
:100920007802909179022091100130911101AC016F
:10093000420F531F662757FD6095762FC416D506C4
:10094000E606F706A4F4821B930BAA2797FDA09551
:10095000BA2F8C159D05AE05BF054CF40E949D0174
:1009600080917302882339F11092730224C0C6016A
:100970000E940B0120C02091240130E080911201DF
:10098000909113018217930734F480910E01909196
:100990000F010E94E5002091230130E080911201B7
:1009A000909113018217930734F480910E01909176
:1009B0000F010E94F80080917A0281110E94F801D3
:1009C00080E192E0FF90EF90DF90CF900C94B30F16
:1009D000CF93CFB7F89480918802811127C0EAE9BC
:1009E000F0E08491E6E8F0E09491E82FF0E0EE0F7B
:1009F000FF1FE854FF4FA591B4918C91892321F4F6
:100A000061E08AE00E94D61361E08AE00E949D13B3
:100A10008CB580618CBD8CB580648CBD61E08DE04F
:100A20000E949D1361E08BE00E949D1380918802DB
:100A30008F5F80938802CFBFCF9108959FB7F894BE
:100A400080918802882319F08150809388028091D8
:100A50008802811105C08CB58F7B8CBD10928702F6
:100A60009FBF08958091B90290E02091BA02821B45
:100A7000910908952091BA028091B902281750F483
:100A8000E22FF0E0E554FD4F808190E02F5F20934E
:100A9000BA0208958FEF9FEF0895E091BA02809116
:100AA000B902E81730F4F0E0E554FD4F808190E0A2
:100AB00008958FEF9FEF08950895CF92DF92EF9200
:100AC000FF920F931F93CF93DF937C01CB018A0199
:100AD00020919502222389F0EB016B01C40ED51EF3
:100AE000CC15DD0569F06991D701ED91FC9101907C
:100AF000F081E02DC7010995F3CF642F0E941807FC
:100B0000C801DF91CF911F910F91FF90EF90DF907F
:100B1000CF900895CF93DF931F92CDB7DEB769834F
:100B2000209195022223D1F020919602203240F0AC
:100B300021E030E0FC013383228380E090E015C0A7
:100B400080919702E82FF0E0E856FD4F998190835D
:100B50008F5F809397028093960205C061E0CE017B
:100B600001960E94180781E090E00F90DF91CF91ED
:100B70000895FC011382128248EE53E060E070E0B9
:100B8000448355836683778389E391E091838083EF
:100B900008951092BA021092B90210929702109220
:100BA00096020C945B0681E0809395026093B802F4
:100BB000109297021092960208950F93062F21E04B
:100BC0004091960268E972E08091B8020E94C106E5
:100BD0001092970210929602109295020F9108952A
:100BE0008F929F92AF92BF92CF92DF92EF92FF923D
:100BF0000F931F93CF93DF93EC01F62ED42E480171
:100C00005901EE2019F10E94D3051E2D143008F071
:100C100013E01150B8F0E881F98128E0129FB0018B
:100C20001124A501940104C0569547953795279541
:100C30006A95D2F7CA01B9010190F081E02DCE0189
:100C40000995E7CF60E0CE010E94DD054D2D4132D0
:100C500008F040E22C2D6BEB72E08F2D0E9479069C
:100C60001092BA028093B902DF91CF911F910F9138
:100C7000FF90EF90DF90CF90BF90AF909F908F90BC
:100C80000895CF92EF920F931F93C22EE12C00E0B4
:100C900010E098010E94F0051F910F91EF90CF9006
:100CA000089521E00C94410661E00C94DD0589E88B
:100CB00092E00C94B9051092480381E080934603BA
:100CC0001092450361E082E10E94D61361E083E166
:100CD0000E94D613E9EBF0E080818E7F80838081D3
:100CE0008D7F808380E28093B80085E48093BC0090
:100CF0000895413208F043C0909148039111FCCF10
:100D000091E090934803209346032FEF2093DB025A
:100D100010922003240F20931F0390934703909178
:100D20004703880F892B80934703809145038130C7
:100D300061F410924503809147038093BB0080913A
:100D4000BC0083FDF8CF85EC01C085EE8093BC002C
:100D5000809148038130E1F380912003841710F4DF
:100D60004091200321E233E0FB01D9018A2F821B4D
:100D7000841718F48D918193F9CF842F089580E022
:100D800008950F93413208F04AC0909148039111A1
:100D9000FCCF92E090934803009346039FEF90931B
:100DA000DB021092200340931F03FB0161E273E01A
:100DB000DB019A2F961B941718F491919D93F9CF0C
:100DC0001092470390914703880F892B8093470324
:100DD00080914503813061F410924503809147036F
:100DE0008093BB008091BC0083FDF8CF85EC01C0EF
:100DF00085EE8093BC00222321F08091480382304D
:100E0000E1F38091DB028F3F61F08091DB02803261
:100E100051F08091DB02803341F483E007C081E030
:100E200005C080E003C082E001C084E00F91089516
:100E3000613298F420914803243089F46093FD02D4
:100E4000FC018FEF92E0DC012A2F281B261718F4F3
:100E500021912D93F9CF80E0089581E0089582E0FB
:100E6000089585ED8093BC008091BC0084FDFCCF8B
:100E700010924803089585EC8093BC0010924803BB
:100E800008951F920F920FB60F9211242F933F9344
:100E90004F935F936F937F938F939F93AF93BF9382
:100EA000EF93FF938091B900887F803609F49EC04C
:100EB00078F5883209F45DC090F4803109F456C0A9
:100EC00038F4882309F4F5C0883009F44FC0F5C020
:100ED000883109F44EC0803209F45FC0EEC080341E
:100EE00009F46AC058F4803309F457C0883309F014
:100EF000E4C08093DB020E943B07DFC0803509F429
:100F00004FC0883509F45DC0883409F0D6C0D3C01D
:100F1000883909F4C4C0A8F4883709F467C038F4E4
:100F2000883609F463C0803709F460C0C6C08838C9
:100F300009F4B5C0803909F45FC0803809F0BDC03C
:100F40005BC0803B09F483C038F4803A09F466C082
:100F5000883A09F47CC0B1C0803C09F4A4C0883C44
:100F600009F4A1C0883B09F487C0A7C0809147035A
:100F700010C09091200380911F03981770F5E091A5
:100F8000200381E08E0F80932003F0E0EF5DFC4FA3
:100F900080818093BB0085EC83C08093DB028BC093
:100FA000E091200381E08E0F809320038091BB00AD
:100FB000F0E0EF5DFC4F80839091200380911F0350
:100FC0006BC0E091200381E08E0F8093200380911D
:100FD000BB00F0E0EF5DFC4F808380914603811100
:100FE0006AC081E08093450384EA5EC083E0809319
:100FF00048031092DC02CFCF8091DC02803208F0EF
:101000004EC0E091DC0281E08E0F8093DC02809183
:10101000BB00F0E0E352FD4F8083BDCF0E943B0751
:101020008091DC02803230F4E091DC02F0E0E352A7
:10103000FD4F10826091DC0270E0E0914103F0917D
:1010400042038DED92E009951092DC0236C084E0F7
:10105000809348031092FE021092FD02E091430338
:10106000F091440309958091FD02811105C081E052
:101070008093FD021092FF02E091FE0281E08E0F4C
:101080008093FE02F0E0E150FD4F80818093BB0031
:101090009091FE028091FD02981708F47CCF85E8BC
:1010A0008093BC000AC085EC8093BC00109248037A
:1010B00004C01092DB020E943107FF91EF91BF91B3
:1010C000AF919F918F917F916F915F914F913F91E0
:1010D0002F910F900FBE0F901F90189581E00895EB
:1010E000FC0165830895FC0164830895FC01628717
:1010F0000895FC0163870895FC0164870895FC014D
:101100002585622B4095642365870895FC018681BF
:101110000895FC0187810895FC0180850895FC01F4
:1011200081850895CF93DF93EC01E881F9810280F6
:10113000F381E02DCE010995811103C00E942F1289
:10114000F4CFDF91CF910895CF93DF93EC018A81A3
:101150009B81029719F40E942F12F9CF81E0DF9151
:10116000CF9108958F929F92AF92BF92CF92DF92CC
:10117000EF92FF92CF93DF93EC016B010E947A1202
:101180004B015C01E12CF12C0E947A12681979095B
:101190008A099B096C157D058E059F0560F4E88121
:1011A000F9810280F381E02DCE010995811105C0FE
:1011B0000E942F12E9CF80E001C081E0DF91CF9142
:1011C000FF90EF90DF90CF90BF90AF909F908F9067
:1011D00008958F929F92AF92BF92CF92DF92EF923B
:1011E000FF92CF93DF93EC016B010E947A124B01C7
:1011F0005C01E12CF12C0E947A12681979098A09A4
:101200009B096C157D058E059F0538F48A819B81AD
:10121000029729F40E942F12EECF80E001C081E0F6
:10122000DF91CF91FF90EF90DF90CF90BF90AF9084
:101230009F908F900895FC0189E491E091838083D1
:10124000138212828FEF84838287838714861586A8
:10125000108A1786128A118A148A138A08950895AB
:101260000895FC01758364830895FC017783668388
:101270000895FC01738362830895FC0183E791E084
:10128000918380837383628355834483378326836A
:1012900080E5808781E0818708956EBD00000DB4F0
:1012A00007FEFDCF8EB508958CB580688CBD08957E
:1012B0008CB58F778CBD08950C941E05CF92DF926C
:1012C000EF92FF920F9330E0C12CF9E0DF2EFDE3A7
:1012D000EF2EF12C4C155D056E057F0540F4F6945C
:1012E000E794D794C7943F5F3630A1F737E041E0E9
:1012F0004327211102C050E701C050E5242F30E000
:101300003595279523700C70202B252BFC0120830D
:10131000417041830F91FF90EF90DF90CF9008953F
:10132000EF92FF920F93CF93DF9300D0CDB7DEB74C
:101330007C01FC0186819781009771F081309105D5
:1013400039F08230910531F0039731F40CE005C09B
:1013500004E003C008E001C000E08CB5837F802B6F
:101360008CBDF701828193818430910569F08330CF
:10137000910579F08230910589F00197A1F440E858
:1013800054E86EE170E013C040E054E264EF70E0B6
:101390000EC040E052E16AE770E009C040E059E069
:1013A0006DE370E004C040E452E46FE070E021E0DF
:1013B000F70184819581019709F420E0CE0101961F
:1013C0000E945E0989819A81F701918780878481D3
:1013D0009581019719F48CB5806202C08CB58F7D20
:1013E0008CBDF7018281938101978430910528F4A7
:1013F000FC01ED57FE4F908101C095E02CB5892F7F
:1014000083702C7F822B8CBD8DB592FB992790F930
:101410008E7F892B8DBD0E94E8040F900F90DF9185
:10142000CF910F91FF90EF900895CF93DF93EC0150
:101430000E943D098BE891E099838883DF91CF91E9
:10144000089520E030E040E050E060E070E089E4A2
:1014500093E00C94150ACF93DF93EC018D899E895C
:10146000DC01ED91FC910680F781E02D099561E0AA
:101470008F890E949D1361E08F890E94D61364E6D4
:1014800070E080E090E00E94A91281E0DF91CF91AE
:10149000089520918702222399F03FB7F894209174
:1014A0008702213059F42DB3209385024DB320914A
:1014B0008602209524232DBB3FBF02C030938502B6
:1014C0008CBD9DBD089580918702882361F09FB7F0
:1014D000F8942091870280918502213019F48DBB08
:1014E0009FBF08958FBF0895EF92FF920F931F93B0
:1014F000CF93DF931F92CDB7DEB77C018A0169835A
:101500000E941B098FE991E0F70191838083168B7C
:10151000058B6981678B0F90DF91CF911F910F91A0
:10152000FF90EF9008951F93CF93DF93EC01162F58
:10153000ED89FE89808591850E94490A60E08F8946
:101540000E94D6138D899E89DC01ED91FC9101905A
:10155000F081E02D612F0995182F61E08F890E949D
:10156000D6130E94630A812FDF91CF911F910895B6
:101570001F93CF93DF93EC01162FED89FE898085B1
:1015800091850E94490A60E08F890E94D6138D8957
:101590009E89DC01ED91FC910190F081E02D612F9D
:1015A00009958D899E89DC01ED91FC910190F08176
:1015B000E02D60E00995182F61E08F890E94D61315
:1015C0000E94630A812FDF91CF911F910895EF92BE
:1015D000FF921F93CF93DF931F92CDB7DEB77C01AD
:1015E000162FDC015596ED91FC91569780859185DB
:1015F00049830E94490A60E0F70187890E94D61357
:10160000D70155968D919C915697DC01ED91FC91F7
:101610000190F081E02D612F0995182FF701858940
:101620009689DC01ED91FC910190F081E02D4981DA
:10163000642F099561E0F70187890E94D6130E9403
:10164000630A812F0F90DF91CF911F91FF90EF9050
:101650000895CF92DF92EF92FF920F931F93CF9353
:10166000DF9300D0CDB7DEB76C01162FF22EDC0170
:101670005596ED91FC9156978085918549835A83C3
:101680000E94490A60E0F60187890E94D613D601BC
:1016900055968D919C915697DC01ED91FC910190AE
:1016A000F081E02D612F0995E82E4981042F5A81A0
:1016B000152FF40EF01679F0F60185899689DC0174
:1016C000ED91FC910190F081E02D60E00995F80129
:1016D00081938F01EFCF61E0D60157968C910E94E4
:1016E000D6130E94630A8E2D0F900F90DF91CF9139
:1016F0001F910F91FF90EF90DF90CF900895CF92C0
:10170000DF92EF92FF920F931F93CF93DF9300D05E
:10171000CDB7DEB76C01162FF22EDC015596ED9198
:10172000FC9156978085918549835A830E94490A86
:1017300060E0F60187890E94D613D60155968D91F7
:101740009C915697DC01ED91FC910190F081E02D88
:10175000612F0995E82E4981042F5A81152FF40E27
:10176000F01671F0F60185899689D8016D918D0189
:10177000DC01ED91FC910190F081E02D0995F0CF15
:1017800061E0F60187890E94D6130E94630A8E2DBC
:101790000F900F90DF91CF911F910F91FF90EF90DD
:1017A000DF90CF900895CF93DF93EC018F890E9453
:1017B0000C1421E0892B09F420E08A8D8227DF9127
:1017C000CF910895FC01808D0C94D613FC01238DDC
:1017D0006227818D0C94D613CF93DF93EC018A811D
:1017E0009B81019761F060E0CE010E94E60B60E012
:1017F000CE010E94E20B81E090E09B838A83DF911F
:10180000CF910895862F86958695887098E0980FD9
:10181000891749F0E82FF0E0EB53FE4F2081621763
:1018200019F08F5FF5CF80E008951F93CF93DF937A
:10183000EC010E94D30B882319F09F8D9F5F9F8F2F
:101840009E8D891771F098A1903518F42BE030E047
:1018500002C02DE130E098A1290F311D28A38E8F01
:1018600003C088A18C5E88A388A1803A08F46EC06A
:101870008AA19BA1969587959BA38AA38F8D85307E
:1018800028F08AA19BA198609BA38AA388A1805A73
:1018900088A31F8E89A1882309F446C08CA18F5F7D
:1018A0008CA38C3008F452C06AA17BA16F73CE0167
:1018B0000E94020C182F6AA17BA146E076956795DD
:1018C0004A95E1F7CE010E94020C90E1199F900128
:1018D0001124822BBE0167597F4FFB019081DE01ED
:1018E000A859BF4F9923B1F0FB01908121E0290F46
:1018F0002083AE01490F511DFA0185A3FB019081A0
:101900008C91981778F019A281E08C8FCE010E94FB
:10191000EC0B08C08C939C91973090F09C91943480
:1019200078F4E2CF1CA212C08AA19BA188339B400D
:1019300069F481E089A31CA2C759DF4F188206C051
:1019400019A28F8598890196988B8F87DF91CF9107
:101950001F910895CF92DF92EF92FF920F931F9302
:10196000CF93DF93EC018C0104591F4FF801808164
:1019700091E0980F9083811136C06E01FAE6CF0E88
:10198000D11CF6018081EF56FF4F9081891748F0F6
:10199000CE010E94EC0B8B899C8901969C8B8B8BD2
:1019A00022C0FE01E80FF11DE359FF4F608170E096
:1019B0007E01FBE6EF0EF11CF701808191E0980FAC
:1019C000908302C0759567958A95E2F76170CE01A4
:1019D0000E94E20BF7018081863028F01082F60128
:1019E00080818F5F8083F8018081883008F01082C9
:1019F000DF91CF911F910F91FF90EF90DF90CF90EB
:101A00000895FC01228133812330310511F40C94B7
:101A1000150CFC01228133812230310511F40C9424
:101A2000AA0C08951F920F920FB60F9211242F93B4
:101A30003F934F935F936F937F938F939F93AF9356
:101A4000BF93EF93FF9380915303909154030E94AF
:101A5000010DFF91EF91BF91AF919F918F917F9178
:101A60006F915F914F913F912F910F900FBE0F900B
:101A70001F9018958CE10895DF92EF92FF920F93DB
:101A80001F93CF93DF93EC017B018A01E881F981F9
:101A90000280F381E02D0995D82E8823F1F0E1141E
:101AA000F104C9F001151105B1F08A8D282F30E03D
:101AB00023503109F801408150E04217530714F0D8
:101AC00084508083F801408150E0BE01615E7F4F09
:101AD000C7010E948E171BAE1A8E8D2DDF91CF91FC
:101AE0001F910F91FF90EF90DF9008951F93CF9378
:101AF000DF93EC01162F642FA9010E94740A89ED6F
:101B000091E0998388831BAE8CE0888F198FDF91D9
:101B1000CF911F9108956F7160620C94E70A6FEF87
:101B20000C94930A61EE0C94930A62EE0C94930A5F
:101B3000462F4F7765E00E948B0D81E00895440F9A
:101B4000551F46706230710511F4406204C0613067
:101B5000710509F4486066E00E948B0D81E00895EC
:101B6000CF93DF93EC018A819B81019769F0488DC7
:101B700060E0CE010E948B0D60E0898D0E94D6133B
:101B800081E090E09B838A83DF91CF9108951F933A
:101B9000CF93DF93EC018A819B810297D1F4CE0130
:101BA0000E948F0D182F807319F40E942F12F7CF07
:101BB00040E367E0CE010E948B0D14FF03C0CE010D
:101BC0000E94920DCE010E94B00D15FB882780F96E
:101BD00001C080E0DF91CF911F910895CF93DF93F3
:101BE000EC018A819B81039771F0488D436060E02E
:101BF000CE010E948B0D61E0898D0E94D61383E097
:101C000090E09B838A83DF91CF910895CF93DF93F8
:101C1000EC018A819B81029791F060E0898D0E949E
:101C2000D613488D426060E0CE010E948B0D61E0CA
:101C3000898D0E94D61382E090E09B838A83DF9196
:101C4000CF9108951F93CF93DF93EC01142F4D3163
:101C500000F58A858B8F8B858C8F8C858D8F8D85FC
:101C60008E8F50E0CE014F960E948E17CE010E94BB
:101C7000060E24E0210FAE01455E5F4F60EBCE0102
:101C80000E947F0B8B899C8901969C8B8B8B81E0BA
:101C900001C080E0DF91CF911F910895FC01828DFA
:101CA0008430C8F0838D8683848D8783858D80877B
:101CB000868D81878581811107C0968184819817DF
:101CC00019F086818F3F39F4818992890196928B30
:101CD000818B81E083AF08950F931F93CF93DF93A0
:101CE000EC011BAD11112FC00E94EE0D67E1CE017A
:101CF0000E94B80A80FD28C060E6CE010E94B80AA2
:101D0000082F813248F0CE010E94950D1BAE1A8E2D
:101D1000CE010E94B00D18C040E467E0CE010E94E1
:101D20008B0D202FAE01455E5F4F61E6CE010E9414
:101D3000290B0A8FCE010E944E0E8BAD882319F01D
:101D4000CE010E94B00D1BAD812FDF91CF911F916D
:101D50000F910895FF920F931F93CF93DF931F92DC
:101D6000CDB7DEB78C01DC0155968D919C915697CD
:101D7000DC01ED91FC910684F785E02D60E070E0D8
:101D80000995C8010E942B0AF82E811102C0F12C7E
:101D90004AC061E0F801818D0E949D1360E0D80186
:101DA00059968C910E94D61340E767E0C8010E94C3
:101DB0008B0D4FE26CE1C8010E948B0D45E06DE197
:101DC000C8010E948B0D6DE1C8010E94B80A8530E0
:101DD000F1F6C8010E94B00DC8010E94920DC80121
:101DE0000E94950D87E7898321E0AE014F5F5F4F29
:101DF00060EBC8010E947F0B67E1C8010E94B80A2E
:101E000084FF05C043E760E5C8010E94E70AC801F6
:101E10000E94920D62E0C8010E94980D4EE066E0BB
:101E2000C8010E948B0D8F2D0F90DF91CF911F91D4
:101E30000F91FF900895CF93DF93EC0188859985EA
:101E4000009711F00E94FA168E8187FD05C060E0B0
:101E5000DF91CF910C949D13DF91CF910895CF9393
:101E6000DF93EC018E8187FD07C061E00E949D1326
:101E700060E08E810E94D61381E08983DF91CF914B
:101E80000895EF92FF920F931F93CF93DF93EC018E
:101E90007B0188859985009711F00E94FA169D852F
:101EA0008A85981303C083E090E002C084E090E04C
:101EB0008E9D80018F9D100D9E9D100D11241D8300
:101EC0000C83C8010E94621699878887009741F0A9
:101ED000A80160E070E00E949717FB82EA8204C0CC
:101EE0001D821C821B821A82DF91CF911F910F915C
:101EF000FF90EF900895FC0121E09585828598136D
:101F000020E0CB0136E0969587953A95E1F7482F8A
:101F100043704587CB0154E0969587955A95E1F734
:101F2000382F33703287CB01969587959695879594
:101F300083708387862F8370848781E06F3F71056C
:101F400011F008F080E0808380859185892B51F025
:101F500091E0431390E0921729F062817381CF01E1
:101F60000C94410F0895CF92DF92EF92FF920F935E
:101F70001F93CF93DF93CDB7DEB729970FB6F894B1
:101F8000DEBF0FBECDBF8C01DC0118968D919C91F8
:101F90001997892B09F41DC10E948612F801C68485
:101FA000D784E088F1886C197D098E099F09623316
:101FB00071058105910580F3F894848195819A8358
:101FC0008983A085B1857D01EFEFEE1AFE0A8C9121
:101FD0008987D8018C9152960D90BC91A02D8823B1
:101FE00009F4BDC01D82AB32B10509F059C09BB1E7
:101FF000F8018489982B98879BB1809589238F83DA
:102000008F818E83898587FF02C088858E8358855E
:102010006F8149853E812D8189819A81D7015BB984
:10202000262F3BB900C046FD252F6BB900C05BB918
:10203000362F2BB900C045FD352F6BB900C05BB9F9
:10204000262F3BB900C044FD252F6BB900C05BB9FA
:10205000362F2BB900C043FD352F6BB900C05BB9DB
:10206000262F3BB900C042FD252F6BB900C05BB9DC
:10207000362F2BB900C041FD352F6BB900C05BB9BD
:10208000262F3BB900C040FD252F6BB901975BB9E6
:10209000362F2BB94D9147FD352F6BB901F65BC03B
:1020A000959709F08CC095B1F8018489982B988791
:1020B00095B1809589238F838F818E83898587FF52
:1020C00002C088858E8358856F8149853E812D8128
:1020D00089819A81D70155B9262F35B900C046FDAF
:1020E000252F65B900C055B9362F25B900C045FD6B
:1020F000352F65B900C055B9262F35B900C044FD4C
:10210000252F65B900C055B9362F25B900C043FD4C
:10211000352F65B900C055B9262F35B900C042FD2D
:10212000252F65B900C055B9362F25B900C041FD2E
:10213000352F65B900C055B9262F35B900C040FD0F
:10214000252F65B9019755B9362F25B94D9147FD12
:10215000352F65B901F649873E832D832EC09C91AA
:10216000F8018489982B98879C91809589238F8387
:102170008F818C8388E08B8358856F8149853B8173
:102180002C8189819A81F7015C9347FD252F2C933F
:10219000262F3A9531F0441F6C9300C000C000C058
:1021A000F3CF6C93000038E04191019769F7F80193
:1021B000B38BA28B49873B832C839A838983789442
:1021C0000E948612D8011E966D937D938D939C93E9
:1021D000519729960FB6F894DEBF0FBECDBFDF91A1
:1021E000CF911F910F91FF90EF90DF90CF900895C6
:1021F0001F93CF93DF93EC01162F8981882331F051
:102200008E8187FD03C060E00E949D131E8389813B
:10221000882341F061E0812F0E949D1360E0812FAF
:102220000E94D613812F90E0FC01E057FF4FE4910C
:10223000F0E0EE0FFF1FE255FF4F259134913B8BED
:102240002A8BFC01E458FF4F84918C8BDF91CF9156
:102250001F910895EF92FF920F931F93CF93DF93F7
:102260001F92CDB7DEB77C018B01FC011182178272
:102270001186108616861786108A118AB90149833D
:102280000E947B0FB801C7010E94410F4981642F52
:10229000C7010F90DF91CF911F910F91FF90EF90A9
:1022A0000C94F810CF92DF92EF92FF920F931F934E
:1022B000CF93DF93FC01828193816817790708F03F
:1022C0004DC0CA01AA27BB27182FC32ED42EE52E36
:1022D000FF24DC2DC22F0781002361F0809FC00105
:1022E0001124192FC09E60011124DD2D209FC001F3
:1022F0001124C92FF5848285A085B185F81208C004
:10230000CB01880F991F860F971F8A0F9B1F17C03D
:10231000CB01880F991F880F991F8A0F9B1F452F8C
:10232000552766277727DC01AF0DB11D002329F063
:10233000409F90011124232F01C0242F2C9322852C
:10234000DC01A20FB11D1C932385DC01A20FB11D7E
:10235000DC932485FC01E20FF11DC083DF91CF9156
:102360001F910F91FF90EF90DF90CF900895962FDF
:1023700050E060E070E0592B682BCB01BA01089562
:1023800008958230E8F4E82FF0E0EE0FFF1FE85DDB
:10239000FE4F71836083813041F0809169008C7FB2
:1023A000842B80936900E89A089580916900440F16
:1023B000551F440F551F837F842B80936900E99A32
:1023C00008951F920F920FB60F9211242F933F93EF
:1023D0004F935F936F937F938F939F93AF93BF932D
:1023E000EF93FF93E0912801F09129010995FF9166
:1023F000EF91BF91AF919F918F917F916F915F917D
:102400004F913F912F910F900FBE0F901F901895F5
:102410001F920F920FB60F9211242F933F934F9359
:102420005F936F937F938F939F93AF93BF93EF933C
:10243000FF93E0912A01F0912B010995FF91EF9113
:10244000BF91AF919F918F917F916F915F914F91CC
:102450003F912F910F900FBE0F901F9018950895E8
:102460001F920F920FB60F9211242F933F938F93C9
:102470009F93AF93BF938091560390915703A09180
:102480005803B09159033091550326E0230F2D379F
:1024900020F40296A11DB11D05C029E8230F039663
:1024A000A11DB11D209355038093560390935703AC
:1024B000A0935803B093590380915A0390915B0302
:1024C000A0915C03B0915D030196A11DB11D8093A5
:1024D0005A0390935B03A0935C03B0935D03BF9199
:1024E000AF919F918F913F912F910F900FBE0F90C1
:1024F0001F9018952FB7F894609156037091570369
:1025000080915803909159032FBF08953FB7F894D5
:1025100080915A0390915B03A0915C03B0915D039D
:1025200026B5A89B05C02F3F19F00196A11DB11D2E
:102530003FBF6627782F892F9A2F620F711D811D4B
:10254000911D43E0660F771F881F991F4A95D1F7A9
:102550000895CF92DF92EF92FF92CF93DF936B01BA
:102560007C010E948612EB01C114D104E104F10444
:1025700089F00E942F120E9486126C1B7D0B683E10
:10258000734090F381E0C81AD108E108F108C851FE
:10259000DC4FEACFDF91CF91FF90EF90DF90CF90AB
:1025A00008958330910528F0880F991F04970197AB
:1025B000F1F70895789484B5826084BD84B5816014
:1025C00084BD85B5826085BD85B5816085BDEEE63B
:1025D000F0E0808181608083E1E8F0E0108280811A
:1025E00082608083808181608083E0E8F0E0808188
:1025F00081608083E1EBF0E0808184608083E0EBA8
:10260000F0E0808181608083EAE7F0E0808184608F
:10261000808380818260808380818E7F80838081BF
:10262000806880831092C10008951F93CF93DF9339
:10263000182FEB0161E00E949D13209711F460E0D8
:1026400004C0CF3FD10539F461E0812FDF91CF91F4
:102650001F910C94D613E12FF0E0E859FF4FE4915D
:10266000E330F9F048F4E130B9F0E230A1F584B597
:10267000806284BDC8BD34C0E730E9F0E83019F1AC
:10268000E43049F580918000806280938000D0938F
:102690008B00C0938A0024C084B5806884BDC7BD08
:1026A0001FC080918000806880938000D093890053
:1026B000C093880015C08091B00080688093B000FE
:1026C000C093B3000DC08091B00080628093B000D1
:1026D000C093B40005C0C038D1050CF0B5CFAFCF62
:1026E000DF91CF911F910895833081F028F48130DC
:1026F00099F08230A1F008958730A9F08830B9F0C0
:102700008430D1F4809180008F7D03C0809180005F
:102710008F7780938000089584B58F7702C084B549
:102720008F7D84BD08958091B0008F7703C0809124
:10273000B0008F7D8093B0000895CF93DF9390E039
:10274000FC01E458FF4F2491FC01E057FF4F8491B6
:10275000882349F190E0880F991FFC01E854FF4F4E
:10276000A591B49182559F4FFC01C591D4919FB71B
:10277000611108C0F8948C91209582238C938881F4
:1027800082230AC0623051F4F8948C91322F309534
:1027900083238C938881822B888304C0F8948C9146
:1027A000822B8C939FBFDF91CF9108950F931F933E
:1027B000CF93DF931F92CDB7DEB7282F30E0F9011A
:1027C000E859FF4F8491F901E458FF4F1491F90142
:1027D000E057FF4F04910023C9F0882321F069835B
:1027E0000E9474136981E02FF0E0EE0FFF1FE255A5
:1027F000FF4FA591B4919FB7F8948C91611103C0DC
:102800001095812301C0812B8C939FBF0F90DF9186
:10281000CF911F910F910895CF93DF93282F30E030
:10282000F901E859FF4F8491F901E458FF4FD49121
:10283000F901E057FF4FC491CC2391F081110E9420
:102840007413EC2FF0E0EE0FFF1FEC55FF4FA59136
:10285000B4912C912D2381E090E021F480E002C01E
:1028600080E090E0DF91CF9108951F920F920FB614
:102870000F9211242F938F939F93EF93FF93E091E7
:102880006E03F0916F038081E0917403F091750302
:1028900082FD12C09081809177038F5F8F732091AA
:1028A0007803821751F0E0917703F0E0E25AFC4F91
:1028B000958F8093770301C08081FF91EF919F9165
:1028C0008F912F910F900FBE0F901F9018951F9210
:1028D0000F920FB60F9211242F933F934F935F9354
:1028E0006F937F938F939F93AF93BF93EF93FF93D8
:1028F0008EE593E00E944F15FF91EF91BF91AF914C
:102900009F918F917F916F915F914F913F912F9107
:102910000F900FBE0F901F9018958EE593E00E94C8
:10292000141521E0892B09F420E0822F08951092DC
:1029300061031092600388EE93E0A0E0B0E0809322
:10294000620390936303A0936403B093650383E0F1
:1029500092E090935F0380935E0385EC90E0909308
:102960006B0380936A0384EC90E090936D038093F3
:102970006C0380EC90E090936F0380936E0381EC86
:1029800090E0909371038093700382EC90E09093B9
:1029900073038093720386EC90E0909375038093A9
:1029A00074031092770310927803109279031092B7
:1029B0007A030895CF92DF92EF92FF920F931F93C5
:1029C000CF93DF937C016A01EB0100E010E00C156E
:1029D0001D0571F06991D701ED91FC910190F08195
:1029E000E02DC7010995892B19F00F5F1F4FEFCF1D
:1029F000C801DF91CF911F910F91FF90EF90DF9071
:102A0000CF9008950E94891708950E94DA120E94BB
:102A100004150E94C902C1E4D5E10E942104209757
:102A2000E1F30E944115F9CFFC01818D228D90E0E8
:102A3000805C9F4F821B91098F7399270895FC0139
:102A4000918D828D981731F0828DE80FF11D858D63
:102A500090E008958FEF9FEF0895FC01918D828D96
:102A6000981761F0828DDF01A80FB11D5D968C91E2
:102A7000928D9F5F9F73928F90E008958FEF9FEFED
:102A800008958DE894E1892B49F080E090E0892B4E
:102A900029F00E948D1481110C9400000895FC010E
:102AA000848DDF01A80FB11DA35ABF4F2C91848DD7
:102AB00090E001968F739927848FA689B7892C930C
:102AC000A089B1898C9180648C93938D848D9813A7
:102AD00006C00288F389E02D80818F7D8083089570
:102AE000CF93DF93EC01888D8823C9F0EA89FB89B5
:102AF000808185FD05C0A889B9898C9186FD0FC0AC
:102B00000FB607FCF5CF808185FFF2CFA889B98980
:102B10008C9185FFEDCFCE010E944F15E7CFDF915D
:102B2000CF910895CF92DF92FF920F931F93CF938F
:102B3000DF931F92CDB7DEB76C0181E0D6015896C6
:102B40008C9358975B969C915B975C968C915C9765
:102B5000981307C05096ED91FC915197808185FDA7
:102B60002EC0F601038D10E00F5F1F4F0F7311276A
:102B7000F02EF601848DF81211C00FB607FCF9CFC4
:102B8000D6015096ED91FC915197808185FFF1CF50
:102B9000C60169830E944F156981EBCF838DE80FD1
:102BA000F11DE35AFF4F6083D6015B960C935B9750
:102BB0005296ED91FC915397808180620CC0D601B2
:102BC0005696ED91FC91579760835096ED91FC914C
:102BD000519780818064808381E090E00F90DF9145
:102BE000CF911F910F91FF90DF90CF900895E894BF
:102BF00009C097FB3EF490958095709561957F4F45
:102C00008F4F9F4F9923A9F0F92F96E9BB279395F2
:102C1000F695879577956795B795F111F8CFFAF402
:102C2000BB0F11F460FF1BC06F5F7F4F8F4F9F4F33
:102C300016C0882311F096E911C0772321F09EE891
:102C4000872F762F05C0662371F096E8862F70E0F7
:102C500060E02AF09A95660F771F881FDAF7880FD1
:102C60009695879597F90895AA1BBB1B51E107C05C
:102C7000AA1FBB1FA617B70710F0A61BB70B881F0C
:102C8000991F5A95A9F780959095BC01CD0108959B
:102C900097FB072E16F4009407D077FD09D00E9409
:102CA000341607FC05D03EF4909581959F4F08950A
:102CB000709561957F4F0895EE0FFF1F0590F49179
:102CC000E02D0994CF93DF938230910510F482E0D8
:102CD00090E0E091FD03F091FE0320E030E0A0E001
:102CE000B0E0309739F14081518148175907B8F069
:102CF0004817590771F482819381109729F0139630
:102D00009C938E9312972CC09093FE038093FD03A7
:102D100027C02115310531F04217530718F0A901DA
:102D2000DB0101C0EF019A01BD01DF010280F381E7
:102D3000E02DD7CF21153105F9F0281B390B2430B0
:102D4000310580F48A819B816115710521F0FB01B9
:102D50009383828304C09093FE038093FD03FE015E
:102D6000329644C0FE01E20FF31F819391932250EB
:102D70003109398328833AC02091FB033091FC0349
:102D8000232B41F420910201309103013093FC0385
:102D90002093FB03209100013091010121153105A1
:102DA00041F42DB73EB74091040150910501241B19
:102DB000350BE091FB03F091FC03E217F307A0F45D
:102DC0002E1B3F0B2817390778F0AC014E5F5F4F81
:102DD0002417350748F04E0F5F1F5093FC034093B4
:102DE000FB038193919302C0E0E0F0E0CF01DF911B
:102DF000CF910895CF93DF93009709F487C0FC012A
:102E0000329713821282C091FD03D091FE03209766
:102E100081F420813181280F391F8091FB0390912B
:102E2000FC038217930779F5F093FC03E093FB030F
:102E30006DC0DE0120E030E0AE17BF0750F41296FF
:102E40004D915C9113979D014115510509F1DA01EE
:102E5000F3CFB383A28340815181840F951F8A17DA
:102E60009B0771F48D919C911197840F951F029689
:102E70009183808312968D919C9113979383828383
:102E80002115310529F4F093FE03E093FD033EC0C4
:102E9000D9011396FC93EE9312974D915D91A40F77
:102EA000B51FEA17FB0779F480819181840F951F84
:102EB0000296D90111969C938E93828193811396E9
:102EC0009C938E931297E0E0F0E08A819B810097BB
:102ED00019F0FE01EC01F9CFCE010296288139816B
:102EE000820F931F2091FB033091FC0328173907B1
:102EF00069F4309729F41092FE031092FD0302C08A
:102F000013821282D093FC03C093FB03DF91CF9115
:102F1000089581E090E0F8940C949E17FB01DC0189
:102F200002C001900D9241505040D8F70895DC0145
:102F300001C06D9341505040E0F7089510E0CAEC95
:102F4000D0E004C0FE010E945E162296CC3CD10760
:062F5000C9F7F894FFCF61
:102F56000000FF0380000100000005009B00FF0049
:102F660001003C0031313131616161616161616152
:102F76006161616161616125C011C011526563695A
:102F86006576656400000000008A055D0532053A35
:102F9600054D055C05000000006E080215021502CD
:102FA6001502159208A408E908B20873087608798C
:102FB600087C087F087008860889088C088F080036
:102FC60000000002152F09300902150215310935D6
:102FD60009390900040404000000004D0954095889
:102FE6000990095C09310935093909000000002BEF
:102FF6000A02150215021502159208A408E908B27C
:10300600087308760879087C087F0870088608899E
:10301600088C088F080D0E131516191A1C23252661
:10302600292A2C323400000000AA0E6C0E3C0D2218
:103036000E3A0D9208C70DE908B2087308760879AA
:10304600087C087F087008860889088C088F0800A5
:103056000000009215DA1414152D151F15701500B1
:00000001FF
